{
  "contractName": "uzairContract",
  "abi": [
    {
      "constant": true,
      "inputs": [],
      "name": "stateVariable",
      "outputs": [
        {
          "name": "",
          "type": "uint256"
        }
      ],
      "payable": false,
      "stateMutability": "view",
      "type": "function"
    },
    {
      "inputs": [],
      "payable": false,
      "stateMutability": "nonpayable",
      "type": "constructor"
    },
    {
      "constant": true,
      "inputs": [],
      "name": "getStateVariable",
      "outputs": [
        {
          "name": "",
          "type": "uint256"
        }
      ],
      "payable": false,
      "stateMutability": "view",
      "type": "function"
    },
    {
      "constant": false,
      "inputs": [
        {
          "name": "incomingValue",
          "type": "uint256"
        }
      ],
      "name": "setStateVariable",
      "outputs": [],
      "payable": false,
      "stateMutability": "nonpayable",
      "type": "function"
    }
  ],
  "bytecode": "0x608060405234801561001057600080fd5b5060008081905550610117806100276000396000f3006080604052600436106053576000357c0100000000000000000000000000000000000000000000000000000000900463ffffffff16806301cb08c5146058578063936469d6146082578063e1967eae1460aa575b600080fd5b348015606357600080fd5b5060806004803603810190808035906020019092919050505060d2565b005b348015608d57600080fd5b50609460dc565b6040518082815260200191505060405180910390f35b34801560b557600080fd5b5060bc60e5565b6040518082815260200191505060405180910390f35b8060008190555050565b60008054905090565b600054815600a165627a7a723058201fbf057272a7b6250f61df533c67d2696c597ee320c664939ab2da724dfb621a0029",
  "source": "pragma solidity >=0.4.2;\n\ncontract uzairContract {\n\tuint public stateVariable;\t\n\t\n\tconstructor() public {\n\t\tstateVariable = 0;\t\n\t}\n\n\tfunction getStateVariable() view public returns(uint) {\n\t\treturn stateVariable;\n\t}\n\t\n\tfunction setStateVariable(uint incomingValue) public {\n\t\tstateVariable = incomingValue;\n\t}\n}\n",
  "sourcePath": "/home/ubuntu/Desktop/newDapps/More-SmartContracts-Here/contracts/uzairContract.sol",
  "compiler": {
    "name": "solc",
    "version": "0.4.25+commit.59dbf8f1.Emscripten.clang"
  },
  "schemaVersion": "2.0.2",
  "updatedAt": "2021-06-25T15:24:23.459Z"
}