{
  "contractName": "InheritanceManagement",
  "abi": [
    {
      "inputs": [
        {
          "name": "mothersAddress",
          "type": "address"
        },
        {
          "name": "kidOneAddress",
          "type": "address"
        },
        {
          "name": "kidTwoAddress",
          "type": "address"
        },
        {
          "name": "orgOneAddress",
          "type": "address"
        },
        {
          "name": "orgTwoAddress",
          "type": "address"
        },
        {
          "name": "orgThreeAddress",
          "type": "address"
        }
      ],
      "payable": false,
      "stateMutability": "nonpayable",
      "type": "constructor"
    },
    {
      "constant": false,
      "inputs": [
        {
          "name": "name",
          "type": "string"
        }
      ],
      "name": "getCharity",
      "outputs": [],
      "payable": false,
      "stateMutability": "nonpayable",
      "type": "function"
    },
    {
      "constant": false,
      "inputs": [
        {
          "name": "kidFirstName",
          "type": "string"
        }
      ],
      "name": "updateLifeCycleStage",
      "outputs": [],
      "payable": false,
      "stateMutability": "nonpayable",
      "type": "function"
    }
  ],
  "bytecode": "0x60806040523480156200001157600080fd5b5060405160c08062001900833981018060405281019080805190602001909291908051906020019092919080519060200190929190805190602001909291908051906020019092919080519060200190929190505050640165a0bc00600081905550600060028190555060006001819055506001600560008773ffffffffffffffffffffffffffffffffffffffff1673ffffffffffffffffffffffffffffffffffffffff168152602001908152602001600020819055506001600560008673ffffffffffffffffffffffffffffffffffffffff1673ffffffffffffffffffffffffffffffffffffffff168152602001908152602001600020819055506000600560008573ffffffffffffffffffffffffffffffffffffffff1673ffffffffffffffffffffffffffffffffffffffff168152602001908152602001600020819055506000600560008473ffffffffffffffffffffffffffffffffffffffff1673ffffffffffffffffffffffffffffffffffffffff168152602001908152602001600020819055506000600560008373ffffffffffffffffffffffffffffffffffffffff1673ffffffffffffffffffffffffffffffffffffffff168152602001908152602001600020819055506040805190810160405280600881526020017f4a656e6e69666572000000000000000000000000000000000000000000000000815250600360008773ffffffffffffffffffffffffffffffffffffffff1673ffffffffffffffffffffffffffffffffffffffff16815260200190815260200160002060000190805190602001906200026992919062000ba9565b506001600360008773ffffffffffffffffffffffffffffffffffffffff1673ffffffffffffffffffffffffffffffffffffffff16815260200190815260200160002060010160006101000a81548160ff02191690836004811115620002ca57fe5b02179055506000600360008773ffffffffffffffffffffffffffffffffffffffff1673ffffffffffffffffffffffffffffffffffffffff16815260200190815260200160002060010160016101000a81548160ff0219169083151502179055506000600360008773ffffffffffffffffffffffffffffffffffffffff1673ffffffffffffffffffffffffffffffffffffffff168152602001908152602001600020600201819055506040805190810160405280600481526020017f5279616e00000000000000000000000000000000000000000000000000000000815250600360008673ffffffffffffffffffffffffffffffffffffffff1673ffffffffffffffffffffffffffffffffffffffff1681526020019081526020016000206000019080519060200190620003ff92919062000ba9565b506000600360008673ffffffffffffffffffffffffffffffffffffffff1673ffffffffffffffffffffffffffffffffffffffff16815260200190815260200160002060010160006101000a81548160ff021916908360048111156200046057fe5b02179055506000600360008673ffffffffffffffffffffffffffffffffffffffff1673ffffffffffffffffffffffffffffffffffffffff16815260200190815260200160002060010160016101000a81548160ff0219169083151502179055506000600360008773ffffffffffffffffffffffffffffffffffffffff1673ffffffffffffffffffffffffffffffffffffffff168152602001908152602001600020600201819055506040805190810160405280601781526020017f4e6f766f2d4e6f726469736b2d466f756e646174696f6e000000000000000000815250600460008573ffffffffffffffffffffffffffffffffffffffff1673ffffffffffffffffffffffffffffffffffffffff16815260200190815260200160002060000190805190602001906200059592919062000ba9565b506000600460008573ffffffffffffffffffffffffffffffffffffffff1673ffffffffffffffffffffffffffffffffffffffff168152602001908152602001600020600101819055506000600360008573ffffffffffffffffffffffffffffffffffffffff1673ffffffffffffffffffffffffffffffffffffffff16815260200190815260200160002060020181905550606060405190810160405280602581526020017f5468652d42696c6c2d416e642d4d656c696e64612d47617465732d466f756e6481526020017f6174696f6e000000000000000000000000000000000000000000000000000000815250600460008473ffffffffffffffffffffffffffffffffffffffff1673ffffffffffffffffffffffffffffffffffffffff1681526020019081526020016000206000019080519060200190620006da92919062000ba9565b506000600460008473ffffffffffffffffffffffffffffffffffffffff1673ffffffffffffffffffffffffffffffffffffffff168152602001908152602001600020600101819055506000600360008473ffffffffffffffffffffffffffffffffffffffff1673ffffffffffffffffffffffffffffffffffffffff168152602001908152602001600020600201819055506040805190810160405280601281526020017f5468652d57656c6c636f6d652d54727573740000000000000000000000000000815250600460008373ffffffffffffffffffffffffffffffffffffffff1673ffffffffffffffffffffffffffffffffffffffff1681526020019081526020016000206000019080519060200190620007f892919062000ba9565b506000600460008373ffffffffffffffffffffffffffffffffffffffff1673ffffffffffffffffffffffffffffffffffffffff168152602001908152602001600020600101819055506000600360008373ffffffffffffffffffffffffffffffffffffffff1673ffffffffffffffffffffffffffffffffffffffff1681526020019081526020016000206002018190555085600660405180807f416e6e61000000000000000000000000000000000000000000000000000000008152506004019050908152602001604051809103902060006101000a81548173ffffffffffffffffffffffffffffffffffffffff021916908373ffffffffffffffffffffffffffffffffffffffff16021790555084600660405180807f4a656e6e696665720000000000000000000000000000000000000000000000008152506008019050908152602001604051809103902060006101000a81548173ffffffffffffffffffffffffffffffffffffffff021916908373ffffffffffffffffffffffffffffffffffffffff16021790555083600660405180807f5279616e000000000000000000000000000000000000000000000000000000008152506004019050908152602001604051809103902060006101000a81548173ffffffffffffffffffffffffffffffffffffffff021916908373ffffffffffffffffffffffffffffffffffffffff16021790555082600660405180807f4e6f766f2d4e6f726469736b2d466f756e646174696f6e0000000000000000008152506017019050908152602001604051809103902060006101000a81548173ffffffffffffffffffffffffffffffffffffffff021916908373ffffffffffffffffffffffffffffffffffffffff16021790555081600660405180807f5468652d42696c6c2d416e642d4d656c696e64612d47617465732d466f756e6481526020017f6174696f6e0000000000000000000000000000000000000000000000000000008152506025019050908152602001604051809103902060006101000a81548173ffffffffffffffffffffffffffffffffffffffff021916908373ffffffffffffffffffffffffffffffffffffffff16021790555080600660405180807f5468652d57656c6c636f6d652d547275737400000000000000000000000000008152506012019050908152602001604051809103902060006101000a81548173ffffffffffffffffffffffffffffffffffffffff021916908373ffffffffffffffffffffffffffffffffffffffff16021790555050505050505062000c58565b828054600181600116156101000203166002900490600052602060002090601f016020900481019282601f1062000bec57805160ff191683800117855562000c1d565b8280016001018555821562000c1d579182015b8281111562000c1c57825182559160200191906001019062000bff565b5b50905062000c2c919062000c30565b5090565b62000c5591905b8082111562000c5157600081600090555060010162000c37565b5090565b90565b610c988062000c686000396000f30060806040526004361061004c576000357c0100000000000000000000000000000000000000000000000000000000900463ffffffff168063249a055d146100515780638ad95d0e146100ba575b600080fd5b34801561005d57600080fd5b506100b8600480360381019080803590602001908201803590602001908080601f0160208091040260200160405190810160405280939291908181526020018383808284378201915050505050509192919290505050610123565b005b3480156100c657600080fd5b50610121600480360381019080803590602001908201803590602001908080601f01602080910402602001604051908101604052809392919081815260200183838082843782019150505050505091929192905050506107fd565b005b600080338073ffffffffffffffffffffffffffffffffffffffff16600660405180807f416e6e61000000000000000000000000000000000000000000000000000000008152506004019050908152602001604051809103902060009054906101000a900473ffffffffffffffffffffffffffffffffffffffff1673ffffffffffffffffffffffffffffffffffffffff161415156101bf57600080fd5b60018014156107f257600092506006846040518082805190602001908083835b60208310151561020457805182526020820191506020810190506020830392506101df565b6001836020036101000a038019825116818451168082178552505050505050905001915050908152602001604051809103902060009054906101000a900473ffffffffffffffffffffffffffffffffffffffff1691506000600481111561026757fe5b600360008473ffffffffffffffffffffffffffffffffffffffff1673ffffffffffffffffffffffffffffffffffffffff16815260200190815260200160002060010160009054906101000a900460ff1660048111156102c257fe5b1415610399576001600360008473ffffffffffffffffffffffffffffffffffffffff1673ffffffffffffffffffffffffffffffffffffffff16815260200190815260200160002060010160006101000a81548160ff0219169083600481111561032757fe5b02179055506161a860008082825403925050819055506161a8600360008473ffffffffffffffffffffffffffffffffffffffff1673ffffffffffffffffffffffffffffffffffffffff168152602001908152602001600020600201600082825401925050819055506161a892506107dd565b600160048111156103a657fe5b600360008473ffffffffffffffffffffffffffffffffffffffff1673ffffffffffffffffffffffffffffffffffffffff16815260200190815260200160002060010160009054906101000a900460ff16600481111561040157fe5b14156104d8576002600360008473ffffffffffffffffffffffffffffffffffffffff1673ffffffffffffffffffffffffffffffffffffffff16815260200190815260200160002060010160006101000a81548160ff0219169083600481111561046657fe5b02179055506161a860008082825403925050819055506161a8600360008473ffffffffffffffffffffffffffffffffffffffff1673ffffffffffffffffffffffffffffffffffffffff168152602001908152602001600020600201600082825401925050819055506161a892506107dc565b600260048111156104e557fe5b600360008473ffffffffffffffffffffffffffffffffffffffff1673ffffffffffffffffffffffffffffffffffffffff16815260200190815260200160002060010160009054906101000a900460ff16600481111561054057fe5b14156106195760038060008473ffffffffffffffffffffffffffffffffffffffff1673ffffffffffffffffffffffffffffffffffffffff16815260200190815260200160002060010160006101000a81548160ff021916908360048111156105a457fe5b02179055506207a12060008082825403925050819055506207a120600360008473ffffffffffffffffffffffffffffffffffffffff1673ffffffffffffffffffffffffffffffffffffffff168152602001908152602001600020600201600082825401925050819055506207a12092506107db565b6003600481111561062657fe5b600360008473ffffffffffffffffffffffffffffffffffffffff1673ffffffffffffffffffffffffffffffffffffffff16815260200190815260200160002060010160009054906101000a900460ff16600481111561068157fe5b14156107da576004600360008473ffffffffffffffffffffffffffffffffffffffff1673ffffffffffffffffffffffffffffffffffffffff16815260200190815260200160002060010160006101000a81548160ff021916908360048111156106e657fe5b02179055506001600360008473ffffffffffffffffffffffffffffffffffffffff1673ffffffffffffffffffffffffffffffffffffffff16815260200190815260200160002060010160016101000a81548160ff021916908315150217905550600260008154809291906001019190505550632cb417806000808282540392505081905550632cb41780600360008473ffffffffffffffffffffffffffffffffffffffff1673ffffffffffffffffffffffffffffffffffffffff16815260200190815260200160002060020160008282540192505081905550632cb4178092506002805414156107d9576107d86109d3565b5b5b5b5b5b828360005401101515156107ed57fe5b6107f7565b600080fd5b50505050565b33818173ffffffffffffffffffffffffffffffffffffffff166006826040518082805190602001908083835b60208310151561084e5780518252602082019150602081019050602083039250610829565b6001836020036101000a038019825116818451168082178552505050505050905001915050908152602001604051809103902060009054906101000a900473ffffffffffffffffffffffffffffffffffffffff1673ffffffffffffffffffffffffffffffffffffffff161415156108c457600080fd5b600f600460003373ffffffffffffffffffffffffffffffffffffffff1673ffffffffffffffffffffffffffffffffffffffff16815260200190815260200160002060010154014211156109bc576180e860008082825403925050819055506180e8600460003373ffffffffffffffffffffffffffffffffffffffff1673ffffffffffffffffffffffffffffffffffffffff1681526020019081526020016000206002016000828254019250508190555042600460003373ffffffffffffffffffffffffffffffffffffffff1673ffffffffffffffffffffffffffffffffffffffff168152602001908152602001600020600101819055505b6180e88060005401101515156109ce57fe5b505050565b60006359682f0060008082825403925050819055506359682f006001600082825401925050819055506359682f00806000540110151515610a1057fe5b60016003600054811515610a2057fe5b040390508060046000600660405180807f4e6f766f2d4e6f726469736b2d466f756e646174696f6e0000000000000000008152506017019050908152602001604051809103902060009054906101000a900473ffffffffffffffffffffffffffffffffffffffff1673ffffffffffffffffffffffffffffffffffffffff1673ffffffffffffffffffffffffffffffffffffffff168152602001908152602001600020600201600082825401925050819055508060046000600660405180807f5468652d42696c6c2d416e642d4d656c696e64612d47617465732d466f756e6481526020017f6174696f6e0000000000000000000000000000000000000000000000000000008152506025019050908152602001604051809103902060009054906101000a900473ffffffffffffffffffffffffffffffffffffffff1673ffffffffffffffffffffffffffffffffffffffff1673ffffffffffffffffffffffffffffffffffffffff168152602001908152602001600020600201600082825401925050819055508060046000600660405180807f5468652d57656c6c636f6d652d547275737400000000000000000000000000008152506012019050908152602001604051809103902060009054906101000a900473ffffffffffffffffffffffffffffffffffffffff1673ffffffffffffffffffffffffffffffffffffffff1673ffffffffffffffffffffffffffffffffffffffff16815260200190815260200160002060020160008282540192505081905550600181600302016000808282540392505081905550505600a165627a7a72305820b4528c40659f232b6344fe51ea40c2ae51eb5f30d4bab6e965df5fc76c8f96870029",
  "source": "pragma solidity >=0.4.21;\n// SPDX-License-Identifier: MIT \n\ncontract InheritanceManagement {\n    \n    uint256 private totalWealth;\n    uint256 private annaWealth;\n    uint totalGraduatedKids; \n    \n    enum LifeStages {\n        juniorSchool, juniorHigh, highSchool, university, graduate\n    }\n    \n    struct Kids {\n        string name;\n        LifeStages currentStage;\n        bool isCollegeGraduate;\n        uint bal; // balance\n    }\n    \n    struct Orgs {\n        string name;\n        uint256 lastCharityWithdrawalTime;\n        uint bal;\n    }\n    \n    mapping (address => Kids) private kidsMap;\n    mapping (address => Orgs) private orgsMap;\n    mapping (address => uint) private isKidMap; // 1 implies address belongs to some family member. 0 implies address belongs to some organization\n    mapping (string => address) nameToAddressMap;\n    \n    constructor(address mothersAddress, address kidOneAddress, address kidTwoAddress, address orgOneAddress, address orgTwoAddress, address orgThreeAddress) {\n        \n        totalWealth = 6000000000; // 6 billion dollars (total net worth) \n        totalGraduatedKids = 0;\n        annaWealth = 0;\n        \n        \n        // populating isKidMap data structure\n        \n        isKidMap[kidOneAddress] = 1;\n        isKidMap[kidTwoAddress] = 1;\n        isKidMap[orgOneAddress] = 0;\n        isKidMap[orgTwoAddress] = 0;\n        isKidMap[orgThreeAddress] = 0;\n        \n        \n        // populating kidsMap data structure\n        \n        kidsMap[kidOneAddress].name = 'Jennifer';\n        kidsMap[kidOneAddress].currentStage = LifeStages.juniorHigh; // elder kid goes to juniorHigh\n        kidsMap[kidOneAddress].isCollegeGraduate = false;\n        kidsMap[kidOneAddress].bal = 0;\n        \n        kidsMap[kidTwoAddress].name = 'Ryan';\n        kidsMap[kidTwoAddress].currentStage = LifeStages.juniorSchool; // younger kid goes to juniorSchool\n        kidsMap[kidTwoAddress].isCollegeGraduate = false;\n        kidsMap[kidOneAddress].bal = 0;\n        \n        \n        // populating orgsMap\n        \n        orgsMap[orgOneAddress].name = 'Novo-Nordisk-Foundation';\n        orgsMap[orgOneAddress].lastCharityWithdrawalTime = 0;\n        kidsMap[orgOneAddress].bal = 0;\n        \n        orgsMap[orgTwoAddress].name = 'The-Bill-And-Melinda-Gates-Foundation';\n        orgsMap[orgTwoAddress].lastCharityWithdrawalTime = 0;\n        kidsMap[orgTwoAddress].bal = 0;\n        \n        orgsMap[orgThreeAddress].name = 'The-Wellcome-Trust';\n        orgsMap[orgThreeAddress].lastCharityWithdrawalTime = 0;\n        kidsMap[orgThreeAddress].bal = 0;\n        \n        \n        // inititializing nameToAddressMap\n        \n        nameToAddressMap['Anna'] = mothersAddress;\n        nameToAddressMap['Jennifer'] = kidOneAddress;\n        nameToAddressMap['Ryan'] = kidTwoAddress; \n        nameToAddressMap['Novo-Nordisk-Foundation'] = orgOneAddress;\n        nameToAddressMap['The-Bill-And-Melinda-Gates-Foundation'] = orgTwoAddress;\n        nameToAddressMap['The-Wellcome-Trust'] = orgThreeAddress;\n    }\n    \n    /*\n        isOrganization() ...\n        \n        Checks if this name is registered with us or not. \n        If not, no transaction occurs. Also checks if it is \n        registered with the same address or not. If not, no \n        charity occurs them. If they are registered and only \n        they are asking for money, then and then only they get \n        charity \n    */\n    \n    modifier isOrganization(address org, string memory name) {\n        require(nameToAddressMap[name] == org);_;\n    }\n    \n    /*\n        isAnna() ...\n        \n        Here, we make sure that only Anna is trying to update \n        the stage of their kids academic life. If no, we don't \n        proceed forward\n    */\n    \n    modifier isAnna(address incomingAddress) {\n        require(nameToAddressMap['Anna'] == incomingAddress);_;\n    }\n    \n    /*\n        getCharity() ...\n        \n        An organization can get charity only once a year.\n        A year, on this contract, is equal to 15 seconds.\n        We strictly check if they have withdrawn charity this year or not.\n        If not, then we give them charity. Charity amount is set by us.\n        It is equal to $33, 000\n    */\n    \n    function getCharity(string memory name) isOrganization(msg.sender, name) public {\n        if (block.timestamp > orgsMap[msg.sender].lastCharityWithdrawalTime + 15 seconds) { // 1 year == 15 seconds \n            totalWealth -= 33000;\n            orgsMap[msg.sender].bal += 33000;\n            orgsMap[msg.sender].lastCharityWithdrawalTime = block.timestamp;\n        }\n        assert(totalWealth + 33000 >= 33000);\n    }\n    \n    /*\n        updateLifeCycleStage() ...\n        \n        Here, we enter if Anna updates academic stage of kids. \n        We transfer allowance to the kids based on what they need\n        in this current stage of their life. \n        We make sure that we have enough money that we are transferring\n    */\n    \n    function updateLifeCycleStage(string memory kidFirstName) isAnna(msg.sender) public {\n        if (1 == 1) {// (keccak256(bytes(kidFirstName)) == keccak256(bytes('Jennifer')) || keccak256(bytes(kidFirstName)) == keccak256(bytes('Ryan'))) {\n            uint valueTransferred = 0;\n            address kidsAddress = nameToAddressMap[kidFirstName];\n            \n            if (kidsMap[kidsAddress].currentStage == LifeStages.juniorSchool) {\n                kidsMap[kidsAddress].currentStage = LifeStages.juniorHigh;\n                \n                totalWealth -= 25000;\n                kidsMap[kidsAddress].bal += 25000;\n                valueTransferred = 25000;\n            }\n            else if (kidsMap[kidsAddress].currentStage == LifeStages.juniorHigh) {\n                kidsMap[kidsAddress].currentStage = LifeStages.highSchool;\n                \n                totalWealth -= 25000;\n                kidsMap[kidsAddress].bal += 25000;\n                valueTransferred = 25000;\n            }\n            else if (kidsMap[kidsAddress].currentStage == LifeStages.highSchool) {\n                kidsMap[kidsAddress].currentStage = LifeStages.university;\n                \n                totalWealth -= 500000;\n                kidsMap[kidsAddress].bal += 500000;\n                valueTransferred = 500000;\n            }\n            else if (kidsMap[kidsAddress].currentStage == LifeStages.university) {\n                kidsMap[kidsAddress].currentStage = LifeStages.graduate;\n                kidsMap[kidsAddress].isCollegeGraduate = true;\n                totalGraduatedKids++;\n                \n                totalWealth -= 750000000; // this kid's inheritance (12.5% of the original $6 billion)\n                kidsMap[kidsAddress].bal += 750000000;\n                valueTransferred = 750000000;\n                \n                if (totalGraduatedKids == 2) {\n                    endEverything();\n                }\n            }\n            \n            assert(totalWealth + valueTransferred >= valueTransferred);\n        }\n        else {\n            revert();\n        }\n    }\n    \n    /*\n        endEverything() ... \n        \n        This function is called only when Anna successfully gets both the kids through college. \n        Now, Anna gets 25% of our total wealth, i.e., $1.5 billion. \n        The reamaining goes to charity foundations\n    */\n    \n    function endEverything() private {\n        totalWealth -= 1500000000;\n        annaWealth += 1500000000;\n        \n        assert(totalWealth + 1500000000 >= 1500000000);\n        \n        uint threeParts = (totalWealth / 3) - 1;\n        orgsMap[nameToAddressMap['Novo-Nordisk-Foundation']].bal += threeParts;\n        orgsMap[nameToAddressMap['The-Bill-And-Melinda-Gates-Foundation']].bal += threeParts;\n        orgsMap[nameToAddressMap['The-Wellcome-Trust']].bal += threeParts;\n        \n        totalWealth -= ((3 * threeParts) + 1);\n    }\n}\n",
  "sourcePath": "/home/ubuntu/Desktop/newDapps/contracts/InheritanceManagement.sol",
  "compiler": {
    "name": "solc",
    "version": "0.4.25+commit.59dbf8f1.Emscripten.clang"
  },
  "schemaVersion": "2.0.2",
  "updatedAt": "2021-06-25T15:19:03.607Z"
}